:100000000C942A000C943F000C943F000C943F0089
:100010000C943F000C943F000C943F000C943F0064
:100020000C943F000C943F000C943F000C943F0054
:100030000C943F000C943F000C943F000C943F0044
:100040000C943F000C943F000C943F000C943F0034
:100050000C943F0011241FBECFE5D8E0DEBFCDBF1A
:1000600010E0A0E6B0E0E6EDF8E002C005900D92E9
:10007000AA37B107D9F70E941E040C9469040C94A6
:1000800000004130B1F5813099F0813030F082309C
:10009000D1F0833009F067C021C02AB381E090E03D
:1000A00002C0880F991F6A95E2F7282B2ABB089592
:1000B00027B381E090E002C0880F991F6A95E2F7AC
:1000C000282B27BB089524B381E090E002C0880F5D
:1000D000991F6A95E2F7282B24BB089521B381E08C
:1000E00090E002C0880F991F6A95E2F7282B21BB88
:1000F00008954423C1F5813099F0813028F0823091
:10010000D9F0833081F524C02AB381E090E002C0A9
:10011000880F991F6A95E2F7809582238ABB08951C
:1001200027B381E090E002C0880F991F6A95E2F73B
:100130008095822387BB089524B381E090E002C0BC
:10014000880F991F6A95E2F78095822384BB0895F2
:1001500021B381E090E002C0880F991F6A95E2F711
:100160008095822381BB0895813049F0813028F049
:10017000823039F0833041F406C06ABB089567BB12
:10018000089564BB089561BB08954130B1F5813095
:1001900099F0813030F08230D1F0833009F067C0BF
:1001A00021C02BB381E090E002C0880F991F6A95AF
:1001B000E2F7282B2BBB089528B381E090E002C022
:1001C000880F991F6A95E2F7282B28BB089525B35D
:1001D00081E090E002C0880F991F6A95E2F7282B12
:1001E00025BB089522B381E090E002C0880F991FDB
:1001F0006A95E2F7282B22BB08954423C1F581308C
:1002000099F0813028F08230D9F0833081F524C014
:100210002BB381E090E002C0880F991F6A95E2F746
:10022000809582238BBB089528B381E090E002C0C3
:10023000880F991F6A95E2F78095822388BB0895FD
:1002400025B381E090E002C0880F991F6A95E2F71C
:100250008095822385BB089522B381E090E002C09F
:10026000880F991F6A95E2F78095822382BB0895D3
:10027000813049F0813028F0823039F0833041F408
:1002800006C06BBB089568BB089565BB089562BB4B
:100290000895813051F0813030F0823041F0833068
:1002A00079F080E0089589B303C086B301C083B3B9
:1002B00090E002C0959587956A95E2F78170089560
:1002C00080B390E002C0959587956A95E2F78170BA
:1002D0000895813051F0813030F0823041F0833028
:1002E00041F080E008958BB3089588B3089585B3F5
:1002F000089582B30895813049F0813028F082302A
:1003000039F0833071F409C080E003C081E001C09E
:1003100082E060E00E943801089583E060E00E947E
:10032000380108950F931F93182F062F6A3030F568
:1003300061E00E94B400113069F0113028F01230F1
:1003400079F01330D9F412C0E02FF0E0E059FF4FFC
:1003500080E011C0E02FF0E0E059FF4F81E00BC0DA
:10036000E02FF0E0E059FF4F82E005C0E02FF0E021
:10037000E059FF4F83E060810E9438011F910F9187
:100380000895FF920F931F93F82E81E060E041E003
:100390000E94C50081E061E040E00E94C50000EDE0
:1003A00017E0C8010197F1F782E06F2D0E94380134
:1003B000C8010197F1F781E062E041E00E94C500C9
:1003C000C8010197F1F781E062E040E00E94C500BA
:1003D000C8010197F1F71F910F91FF900895EF92D7
:1003E000FF920F931F93DF93CF93CDB7DEB72A977A
:1003F0000FB6F894DEBF0FBECDBF8C0197FF07C0CC
:100400008DE20E94C101109501951F4F05C0009714
:1004100019F480E30E94C101FE0131968AE0DF01F8
:100420001D928A95E9F740E07F0110C0F701E40FC3
:10043000F11DC8016AE070E00E9442048083C80197
:100440006AE070E00E9442048B014F5F01151105C4
:1004500069F7F42EFA948E010F5F1F4F040F111DE0
:1004600006C0F8018081805D0E94C101FA94F7FE08
:10047000F8CF2A960FB6F894DEBF0FBECDBFCF914E
:10048000DF911F910F91FF90EF9008951F93CF93ED
:10049000DF93EC0110E003C00E94C1011F5FFE0169
:1004A000E10FF11D80818823B9F7DF91CF911F9172
:1004B0000895FF920F931F93F82E81E060E040E0D3
:1004C0000E94C50081E061E040E00E94C50000EDAF
:1004D00017E0C8010197F1F782E06F2D0E94380103
:1004E000C8010197F1F781E062E041E00E94C50098
:1004F000C8010197F1F781E062E040E00E94C50089
:10050000C8010197F1F71F910F91FF90089588E8B6
:1005100093E128EC30E0F9013197F1F70197D9F731
:100520008EE00E94590288E893E128EC30E0F9015E
:100530003197F1F70197D9F7089588E893E128EC0E
:1005400030E0F9013197F1F70197D9F78FE00E9478
:10055000590288E893E128EC30E0F9013197F1F78E
:100560000197D9F7089588E893E128EC30E0F90184
:100570003197F1F70197D9F788E00E94590288E88E
:1005800093E128EC30E0F9013197F1F70197D9F7C1
:10059000089588E893E128EC30E0F9013197F1F70C
:1005A0000197D9F788E10E94590288E893E128EC85
:1005B00030E0F9013197F1F70197D9F708950F93DA
:1005C0001F93CF93DF93EC0100E003C00E94C101B1
:1005D0000F5FFE01E00FF11D80818823B9F788E8E5
:1005E00093E128EC30E0F9013197F1F70197D9F761
:1005F000013168F010E0C02FD0E0609703C00E9486
:10060000C9021F5F812F90E08C179D07C4F3DF9113
:10061000CF911F910F910895823080F4603170F472
:10062000882319F0813051F405C0862F80580E942C
:1006300059020895862F80540E94590208950F93FD
:100640001F93CF93DF938B01880F880F880F805CF7
:100650000E945902C0E0D0E0F801EC0FFD1F80813C
:100660000E94C1012196C830D105B1F780E80E94EF
:100670005902DF91CF911F910F91089581E08A95E2
:10068000F1F781E00E94590280ED97E00197F1F7C0
:1006900008950F931F9380E197E228EC30E0F90171
:1006A0003197F1F70197D9F781E060E041E00E94CE
:1006B000410081E061E041E00E94410081E062E0B0
:1006C00041E00E94410082E06FEF0E94B40084EF9D
:1006D00091E028EC30E0F9013197F1F70197D9F773
:1006E00088E30E94590200ED17E0C8010197F1F775
:1006F0008CE00E945902C8010197F1F781E00E9445
:10070000590280E797E10197F1F786E00E945902CC
:10071000C8010197F1F71F910F910895AF92BF9211
:10072000DF92EF92FF920F931F93CF93DF93EE240C
:10073000EA94C0E0D0E090E1A92E97E2B92EDC2E39
:1007400083E06C2F40E00E94C5008E01005A1F4FCD
:1007500084E0F82E83E06F2D0E944901882311F474
:10076000F801E08083E06F2D0E9449018823D1F3D6
:10077000C5010197F1F7F3940C5F1F4FF8E0FF16E6
:1007800049F783E06D2D41E00E94C5002196C430F9
:10079000D105A9F68E2DDF91CF911F910F91FF907A
:1007A000EF90DF90BF90AF90089583E06FE00E94DC
:1007B000B40083E06FEF0E94380108950895089512
:1007C0000F931F93182F042F40E00E94C500812F24
:1007D000602F40E00E94C5001F910F910895EF9295
:1007E000FF920F931F93182F062FF42EE22E41E055
:1007F0000E944100812F6F2D41E00E94410081E065
:10080000E81621F082E0E816A1F409C0812F602FDC
:1008100041E00E94C500812F6F2D40E008C0812F6C
:10082000602F40E00E94C500812F6F2D41E00E94A3
:10083000C5001F910F91FF90EF900895CF93DF9324
:10084000C8ECD0E080E060E042E021E00E94EF03ED
:1008500083E060E042E022E00E94EF0388EE93E054
:10086000FE013197F1F70197D9F783E060E042E0AC
:100870000E94E00380E593ECFE013197F1F70197C8
:10088000D9F7E0CF97FB092E07260AD077FD04D0D1
:100890000CD006D000201AF4709561957F4F089512
:1008A000F6F7909581959F4F0895AA1BBB1B51E1C8
:1008B00007C0AA1FBB1FA617B70710F0A61BB70BD0
:1008C000881F991F5A95A9F780959095BC01CD0175
:0608D0000895F894FFCF2B
:1008D6000102030405060708090A0B0C0D0E0F108A
:0A08E6003F065B4F666D7D077F6FD4
:00000001FF
