:100000000C942A000C9447000C9447000C94470071
:100010000C943D040C9464040C94A1030C94C80348
:100020000C94EF030C9416040C9464030C942703B3
:100030000C94AB040C94B8000C94E1000C940A01ED
:100040000C9447000C9447000C9447000C94470014
:100050000C94470011241FBECFE5D8E0DEBFCDBF12
:1000600010E0A0E6B0E0E2E5F4E102C005900D92F8
:10007000AA37B107D9F710E0AAE7B0E001C01D9296
:10008000A03AB107E1F70E94DA090C94270A0C9410
:10009000000091B5987F982B91BD81B5886081BD96
:1000A000089588E181BD11BC0895579856985598D8
:1000B000549A539A529886E880BD5198509880B5CA
:1000C0008F7B80BD80B58F7D80BD80B58F7E80BDEC
:1000D00080B5877F80BD83E389B9089589B9089584
:1000E0005D9BFECF8CB908955F9BFECF8CB10895C8
:1000F000549A539A08955498539808958CB108953A
:10010000FC015F9BFECF8CB180830AC05F9BFECF5A
:100110008CB181838A3011F08D3009F411823196CF
:100120008081882399F70895FC0104C05D9BFECF70
:1001300031968CB980818823C9F7089501C08CB1AC
:100140005F99FDCF0895823049F0833061F08130AE
:1001500071F470937B0060937A00089570937D0032
:1001600060937C00089570937F0060937E000895F3
:100170001F920F920FB60F9211242F933F934F931C
:100180005F936F937F938F939F93AF93BF93EF93FF
:10019000FF93E0917A00F0917B00309709F0099588
:1001A000FF91EF91BF91AF919F918F917F916F914F
:1001B0005F914F913F912F910F900FBE0F901F9025
:1001C00018951F920F920FB60F9211242F933F9301
:1001D0004F935F936F937F938F939F93AF93BF934F
:1001E000EF93FF93E0917C00F0917D00309709F050
:1001F0000995FF91EF91BF91AF919F918F917F9161
:100200006F915F914F913F912F910F900FBE0F9083
:100210001F9018951F920F920FB60F9211242F93D3
:100220003F934F935F936F937F938F939F93AF937E
:10023000BF93EF93FF93E0917E00F0917F003097A2
:1002400009F00995FF91EF91BF91AF919F918F9127
:100250007F916F915F914F913F912F910F900FBEC2
:100260000F901F9018950E941E0A9C0180E0232B7E
:1002700009F081E0089583B78F7783BF83B78064E7
:1002800083BF83B7886083BF83B78E7F83BF83B705
:100290008D7F83BF83B78B7F83BF83B78F7E83BF01
:1002A00083B7806283BF08958FB5877F8FBD8FB579
:1002B0008B7F8FBD8FB58F778FBD8FB58F7B8FBDB8
:1002C0008FB58F7D8FBD8FB58F7E8FBD8FB58E7FA4
:1002D0008FBD8FB58D7F8FBD8EB5877F8EBD8EB55F
:1002E0008F7E8EBD8EB58E7F8EBD8EB58D7F8EBD81
:1002F0008EB58B7F8EBD8EB580688EBD8EB58064C9
:100300008EBD089585B58F7785BD85B5806485BD23
:1003100085B5886085BD85B58F7E85BD85B58062D4
:1003200085BD82B5877F82BD0895823031F08330EC
:1003300039F0813031F462BF08957DBD6CBD089500
:1003400064BD0895823031F0833039F0813031F46A
:100350006CBF08957BBD6ABD089563BD089597BDC8
:1003600086BD0895823071F08330B1F08130E9F4B8
:1003700083B78E7F83BF83B78D7F83BF83B78B7F28
:1003800083BF08958EB58E7F8EBD8EB58D7F8EBD59
:100390008EB58B7F8EBD089585B58E7F85BD85B565
:1003A0008D7F85BD85B58B7F85BD0895823089F0B1
:1003B0008330F1F0813051F55093810040938000FB
:1003C000309391002093900081E00E94A20181E08F
:1003D0000CC050938100409380003093890020939B
:1003E000880082E00E94A20182E00E94B20108958A
:1003F00050938100409380003093850020938400C7
:1004000083E00E94A20183E00E94B201089582303D
:1004100071F08330C1F0813009F5709381006093F1
:10042000800050938F0040938E0081E009C070934C
:1004300081006093800050938D0040938C0082E097
:100440000E94B201089570938100609380005093E0
:1004500083004093820083E00E94B20108958230BD
:1004600071F08330B1F08130E9F483B78E7F83BFC0
:1004700083B78D7F83BF83B78B7F83BF08958EB58E
:100480008E7F8EBD8EB58D7F8EBD8EB58B7F8EBDE2
:10049000089585B58E7F85BD85B58D7F85BD85B574
:1004A0008B7F85BD089526B537B5C9010895823083
:1004B00049F0833051F0813019F020E030E008C07D
:1004C00082B704C02CB53DB503C084B5282F30E0F9
:1004D000C9010895882319F0813041F404C08EB514
:1004E0008F7B8EBD08958EB580648EBD0895823059
:1004F00079F0833029F1813079F5613019F062307B
:1005000059F503C089B7816022C089B782601FC0D6
:10051000623069F0633018F46130F1F405C0633083
:1005200049F06430C9F409C089B7806210C089B746
:1005300080610DC089B788600AC089B7846007C030
:10054000613019F0623041F404C089B7806489BF1A
:10055000089589B7806889BF0895823079F0833023
:1005600029F1813079F5613019F0623059F503C015
:1005700089B78E7F22C089B78D7F1FC0623069F036
:10058000633018F46130F1F405C0633049F0643031
:10059000C9F409C089B78F7D10C089B78F7E0DC09F
:1005A00089B7877F0AC089B78B7F07C0613019F090
:1005B000623041F404C089B78F7B89BF089589B741
:1005C0008F7789BF0895823099F0833089F1813027
:1005D000E9F5613019F06230C9F505C050938F001C
:1005E00040938E0008955093910040939000089599
:1005F000623079F0633018F4613041F505C0633042
:1006000069F0643019F50FC050938700409386005D
:1006100008955093890040938800089550938B006B
:1006200040938A00089550938D0040938C00089564
:10063000613019F0623051F405C05093830040934B
:1006400082000895509385004093840008951F927E
:100650000F920FB60F9211242F933F934F935F93F6
:100660006F937F938F939F93AF93BF93EF93FF937A
:1006700080919400909195000196909395008093BD
:10068000940020918000309181008217930759F4E3
:10069000E0918E00F0918F00309729F0099510922B
:1006A000950010929400FF91EF91BF91AF919F91AF
:1006B0008F917F916F915F914F913F912F910F900B
:1006C0000FBE0F901F9018951F920F920FB60F92AA
:1006D00011242F933F934F935F936F937F938F9347
:1006E0009F93AF93BF93EF93FF938091920090916C
:1006F0009300019690939300809392002091800044
:10070000309181008217930759F4E0919000F091A5
:100710009100309729F00995109293001092920061
:10072000FF91EF91BF91AF919F918F917F916F91C9
:100730005F914F913F912F910F900FBE0F901F909F
:1007400018951F920F920FB60F9211242F933F937B
:100750004F935F936F937F938F939F93AF93BF93C9
:10076000EF93FF93E0918600F09187000995FF9148
:10077000EF91BF91AF919F918F917F916F915F9119
:100780004F913F912F910F900FBE0F901F90189592
:100790001F920F920FB60F9211242F933F934F93F6
:1007A0005F936F937F938F939F93AF93BF93EF93D9
:1007B000FF93E0918800F09189000995FF91EF91F6
:1007C000BF91AF919F918F917F916F915F914F9169
:1007D0003F912F910F900FBE0F901F9018951F9271
:1007E0000F920FB60F9211242F933F934F935F9365
:1007F0006F937F938F939F93AF93BF93EF93FF93E9
:10080000E0918A00F0918B000995FF91EF91BF91E3
:10081000AF919F918F917F916F915F914F913F9198
:100820002F910F900FBE0F901F9018951F920F924F
:100830000FB60F9211242F933F934F935F936F93B3
:100840007F938F939F93AF93BF93EF93FF93E09129
:100850008C00F0918D000995FF91EF91BF91AF91C0
:100860009F918F917F916F915F914F913F912F91C8
:100870000F900FBE0F901F9018951F920F920FB6FA
:100880000F9211242F933F934F935F936F937F9316
:100890008F939F93AF93BF93EF93FF93E091840067
:1008A000F09185000995FF91EF91BF91AF919F91D4
:1008B0008F917F916F915F914F913F912F910F9009
:1008C0000FBE0F901F9018951F920F920FB60F92A8
:1008D00011242F933F934F935F936F937F938F9345
:1008E0009F93AF93BF93EF93FF93E0918200F091BA
:1008F00083000995FF91EF91BF91AF919F918F91E7
:100900007F916F915F914F913F912F910F900FBE0B
:100910000F901F9018958FB9779BFECF779BFECFD6
:100920008FB108958FB9779BFECF0895779BFECF47
:100930008FB108958FB9779BFECF0895779BFECF37
:100940008FB108956E9A08956E98089590939700C8
:100950008093960008951F920F920FB60F92112464
:100960002F933F934F935F936F937F938F939F93B7
:10097000AF93BF93EF93FF93E0919600F0919700B0
:10098000309709F00995FF91EF91BF91AF919F9139
:100990008F917F916F915F914F913F912F910F9028
:1009A0000FBE0F901F90189581E065E041E00E9416
:1009B000890581E067E041E00E94890581E064E00B
:1009C00041E00E94890581E066E040E00E948905DF
:1009D000709876988EE58DB908958FB780688FBF2F
:1009E00008958FB78F778FBF089585B7826085BFD1
:1009F00085B78E7F85BF8BB780648BBF08958230AB
:100A000039F0833049F0813051F48BB7806402C0F3
:100A10008BB780688BBF08958BB780628BBF0895BA
:100A2000823039F0833049F0813051F48BB78F7BBD
:100A300002C08BB78F778BBF08958BB78F7D8BBF2D
:100A40000895823029F1833009F441C0813009F0E2
:100A50004AC0623071F0633020F4613009F043C065
:100A600005C0633079F06430F1F506C085B7826067
:100A70000BC085B7826002C085B78D7F85BF85B703
:100A8000816023C085B78D7F85BF85B78E7F1DC0F0
:100A9000623069F0633018F4613029F505C06330C5
:100AA00079F0643001F506C085B788600BC085B762
:100AB000886002C085B7877F85BF85B7846005C021
:100AC00085B7877F85BF85B78B7F85BF08956130E8
:100AD00019F0623041F404C084B78F7B84BF08955D
:100AE00084B7806484BF0895823049F0833061F018
:100AF000813071F470939900609398000895709319
:100B00009B0060939A00089570939D0060939C00F1
:100B100008954130B1F5813099F0813030F0823064
:100B2000D1F0833009F067C021C02AB381E090E0A2
:100B300002C0880F991F6A95E2F7282B2ABB0895F7
:100B400027B381E090E002C0880F991F6A95E2F711
:100B5000282B27BB089524B381E090E002C0880FC2
:100B6000991F6A95E2F7282B24BB089521B381E0F1
:100B700090E002C0880F991F6A95E2F7282B21BBED
:100B800008954423C1F5813099F0813028F08230F6
:100B9000D9F0833081F524C02AB381E090E002C00F
:100BA000880F991F6A95E2F7809582238ABB089582
:100BB00027B381E090E002C0880F991F6A95E2F7A1
:100BC0008095822387BB089524B381E090E002C022
:100BD000880F991F6A95E2F78095822384BB089558
:100BE00021B381E090E002C0880F991F6A95E2F777
:100BF0008095822381BB0895813049F0813028F0AF
:100C0000823039F0833041F406C06ABB089567BB77
:100C1000089564BB089561BB08954130B1F58130FA
:100C200099F0813030F08230D1F0833009F067C024
:100C300021C02BB381E090E002C0880F991F6A9514
:100C4000E2F7282B2BBB089528B381E090E002C087
:100C5000880F991F6A95E2F7282B28BB089525B3C2
:100C600081E090E002C0880F991F6A95E2F7282B77
:100C700025BB089522B381E090E002C0880F991F40
:100C80006A95E2F7282B22BB08954423C1F58130F1
:100C900099F0813028F08230D9F0833081F524C07A
:100CA0002BB381E090E002C0880F991F6A95E2F7AC
:100CB000809582238BBB089528B381E090E002C029
:100CC000880F991F6A95E2F78095822388BB089563
:100CD00025B381E090E002C0880F991F6A95E2F782
:100CE0008095822385BB089522B381E090E002C005
:100CF000880F991F6A95E2F78095822382BB089539
:100D0000813049F0813028F0823039F0833041F46D
:100D100006C06BBB089568BB089565BB089562BBB0
:100D20000895813051F0813030F0823041F08330CD
:100D300079F080E0089589B303C086B301C083B31E
:100D400090E002C0959587956A95E2F781700895C5
:100D500080B390E002C0959587956A95E2F781701F
:100D60000895813051F0813030F0823041F083308D
:100D700041F080E008958BB3089588B3089585B35A
:100D8000089582B30895813091F0813028F0823047
:100D9000C9F0833061F521C02BB381E090E002C03F
:100DA000880F991F6A95E2F728272BBB089528B36F
:100DB00081E090E002C0880F991F6A95E2F728272A
:100DC00028BB089525B381E090E002C0880F991FE9
:100DD0006A95E2F7282725BB089522B381E090E0C9
:100DE00002C0880F991F6A95E2F7282722BB089551
:100DF0000F931F93021B130B861B970B461B570B5E
:100E0000BC01069FC001079F900D169F900D1124F5
:100E1000BA010E94F709620F731FCB011F910F9156
:100E200008953F983E9A3D9886B1887F866086B93E
:100E3000359880B78F7180BF3398379A089597B1EE
:100E40008F71907E892B87B9369A349BFECF349A66
:100E500024B135B1C901089597B18F71907E892B66
:100E600087B9369A089524B135B1C9010895909390
:100E70009F0080939E00089580E060E00E948006BD
:100E800008950F931F93082F162F6A3058F461E0CE
:100E90000E94FC05E12FF0E0E059FF4F802F6081B8
:100EA0000E9480061F910F910895FF920F931F9348
:100EB0008B01F42E80E00E941F0724E630E0AC0195
:100EC000429FC001439F900D529F900D1124809F1F
:100ED0009001819F300D909F300D112402C03695F6
:100EE0002795FA94E2F7C9011F910F91FF90089599
:100EF000FF920F931F93F82E81E060E041E00E9483
:100F00000D0681E061E040E00E940D0600ED17E073
:100F1000C8010197F1F782E06F2D0E948006C80199
:100F20000197F1F781E062E041E00E940D06C801FF
:100F30000197F1F781E062E040E00E940D06C801F0
:100F40000197F1F71F910F91FF900895CF92DF92D3
:100F5000FF920F931F93DF93CF93CDB7DEB72A97FE
:100F60000FB6F894DEBF0FBECDBF8C0197FF07C050
:100F70008DE20E947807109501951F4F05C00097DC
:100F800019F480E30E947807FE0131968AE0DF01C0
:100F90001D928A95E9F740E06F0110C0F601E40F59
:100FA000F11DC8016AE070E00E94F7098083C80162
:100FB0006AE070E00E94F7098B014F5F011511058F
:100FC00069F7F42EFA940F2D112707FD10950C0DDB
:100FD0001D1D08C0F8018081805D0E947807FA9489
:100FE00001501040F7FEF6CF2A960FB6F894DEBFF8
:100FF0000FBECDBFCF91DF911F910F91FF90DF907A
:10100000CF9008951F93CF93DF93EC0110E003C0BE
:101010000E9478071F5FFE01E10FF11D8081882388
:10102000B9F7DF91CF911F910895FF920F931F930E
:10103000F82E81E060E040E00E940D0681E061E072
:1010400040E00E940D0600ED17E0C8010197F1F79E
:1010500082E06F2D0E948006C8010197F1F781E0C0
:1010600062E041E00E940D06C8010197F1F781E0BE
:1010700062E040E00E940D06C8010197F1F71F9160
:101080000F91FF90089588E893E128EC30E0F90192
:101090003197F1F70197D9F78EE00E94150888E89B
:1010A00093E128EC30E0F9013197F1F70197D9F796
:1010B000089588E893E128EC30E0F9013197F1F7E1
:1010C0000197D9F78FE00E94150888E893E128EC92
:1010D00030E0F9013197F1F70197D9F7089588E8E1
:1010E00093E128EC30E0F9013197F1F70197D9F756
:1010F00088E00E94150888E893E128EC30E0F901C7
:101100003197F1F70197D9F7089588E893E128EC32
:1011100030E0F9013197F1F70197D9F788E10E94A2
:10112000150888E893E128EC30E0F9013197F1F7F0
:101130000197D9F708950F931F93CF93DF93EC0195
:1011400000E003C00E9478070F5FFE01E00FF11D71
:1011500080818823B9F788E893E128EC30E0F90131
:101160003197F1F70197D9F7013168F010E0C02FFE
:10117000D0E0609703C00E9485081F5F812F90E038
:101180008C179D07C4F3DF91CF911F910F910895A4
:10119000823080F4603170F4882319F0813051F48A
:1011A00005C0862F80580E9415080895862F805408
:1011B0000E94150808950F931F93CF93DF938B011F
:1011C000880F880F880F805C0E941508C0E0D0E06F
:1011D000F801EC0FFD1F80810E9478072196C8302E
:1011E000D105B1F780E80E941508DF91CF911F91DA
:1011F0000F91089581E08A95F1F781E00E9415082A
:1012000080ED97E00197F1F708950F931F9380E128
:1012100097E228EC30E0F9013197F1F70197D9F71F
:1012200081E060E041E00E94890581E061E041E009
:101230000E94890581E062E041E00E94890582E028
:101240006FEF0E94FC0584EF91E028EC30E0F9019B
:101250003197F1F70197D9F788E30E94150800ED5F
:1012600017E0C8010197F1F78CE00E941508C8014A
:101270000197F1F781E00E94150880E797E1019757
:10128000F1F786E00E941508C8010197F1F71F9158
:101290000F910895AF92BF92DF92EF92FF920F935A
:1012A0001F93CF93DF93EE24EA94C0E0D0E090E167
:1012B000A92E97E2B92EDC2E83E06C2F40E00E942D
:1012C0000D068E01005A1F4F84E0F82E83E06F2D2B
:1012D0000E949106882311F4F801E08083E06F2DCD
:1012E0000E9491068823D1F3C5010197F1F7F39489
:1012F0000C5F1F4FF8E0FF1649F783E06D2D41E0CA
:101300000E940D062196C430D105A9F68E2DDF91DD
:10131000CF911F910F91FF90EF90DF90BF90AF9012
:10132000089583E06FE00E94FC0583E06FEF0E9468
:1013300080060895089508950F931F93182F042F82
:1013400040E00E940D06812F602F40E00E940D06B4
:101350001F910F910895EF92FF920F931F93182FF3
:10136000062FF42EE22E41E00E948905812F6F2D79
:1013700041E00E94890581E0E81621F082E0E8164C
:10138000A1F409C0812F602F41E00E940D06812F3A
:101390006F2D40E008C0812F602F40E00E940D06B5
:1013A000812F6F2D41E00E940D061F910F91FF903C
:1013B000EF90089581E063E041E00E94890581E0BB
:1013C00063E040E00E940D060E94D40481E40E9484
:1013D0008B04813431F481E063E041E00E940D062A
:1013E00005C081E063E040E00E940D06FFCF97FB5F
:1013F000092E07260AD077FD04D00CD006D0002095
:101400001AF4709561957F4F0895F6F79095819540
:101410009F4F0895AA1BBB1B51E107C0AA1FBB1F0A
:10142000A617B70710F0A61BB70B881F991F5A9570
:10143000A9F780959095BC01CD010895FB01DC01D1
:101440008D91019080190110D9F3990B0895F894AA
:02145000FFCFCC
:101452000102030405060708090A0B0C0D0E0F1002
:0A1462003F065B4F666D7D077F6F4C
:00000001FF
