:100000000C942A000C9447000C9447000C94470071
:100010000C944B030C9472030C94AF020C94D60214
:100020000C94FD020C9424030C9472020C9435027F
:100030000C9447000C9447000C9447000C94470024
:100040000C9447000C9447000C9447000C94470014
:100050000C94470011241FBECFE5D8E0DEBFCDBF12
:1000600010E0A0E6B0E0ECE8F2E102C005900D92ED
:10007000AA37B107D9F710E0AAE7B0E001C01D9296
:10008000A43AB107E1F70E94D2080C9444090C94F9
:10009000000083B78F7783BF83B7806483BF83B744
:1000A000886083BF83B78E7F83BF83B78D7F83BF15
:1000B00083B78B7F83BF83B78F7E83BF83B7806215
:1000C00083BF08958FB5877F8FBD8FB58B7F8FBD21
:1000D0008FB58F778FBD8FB58F7B8FBD8FB58F7DA0
:1000E0008FBD8FB58F7E8FBD8FB58E7F8FBD8FB546
:1000F0008D7F8FBD8EB5877F8EBD8EB58F7E8EBD79
:100100008EB58E7F8EBD8EB58D7F8EBD8EB58B7F6D
:100110008EBD8EB580688EBD8EB580648EBD08950F
:1001200085B58F7785BD85B5806485BD85B58860CB
:1001300085BD85B58F7E85BD85B5806285BD82B55F
:10014000877F82BD0895823031F0833039F081306D
:1001500031F462BF08957DBD6CBD089564BD0895FE
:10016000823031F0833039F0813031F46CBF089542
:100170007BBD6ABD089563BD089597BD86BD089592
:10018000823071F08330B1F08130E9F483B78E7F33
:1001900083BF83B78D7F83BF83B78B7F83BF089572
:1001A0008EB58E7F8EBD8EB58D7F8EBD8EB58B7FCD
:1001B0008EBD089585B58E7F85BD85B58D7F85BD46
:1001C00085B58B7F85BD0895823089F08330F1F04D
:1001D000813051F550937B0040937A0030938B002F
:1001E00020938A0081E00E94B00081E00CC050930F
:1001F0007B0040937A00309383002093820082E05A
:100200000E94B00082E00E94C000089550937B00DD
:1002100040937A0030937F0020937E0083E00E9419
:10022000B00083E00E94C0000895823071F08330F6
:10023000C1F0813009F570937B0060937A00509390
:1002400089004093880081E009C070937B0060932F
:100250007A00509387004093860082E00E94C0009D
:10026000089570937B0060937A0050937D004093D3
:100270007C0083E00E94C0000895823071F08330DA
:10028000B1F08130E9F483B78E7F83BF83B78D7F70
:1002900083BF83B78B7F83BF08958EB58E7F8EBD5E
:1002A0008EB58D7F8EBD8EB58B7F8EBD089585B545
:1002B0008E7F85BD85B58D7F85BD85B58B7F85BDE1
:1002C000089526B537B5C9010895823049F08330C5
:1002D00051F0813019F020E030E008C082B704C04E
:1002E0002CB53DB503C084B5282F30E0C901089571
:1002F000882319F0813041F404C08EB58F7B8EBD08
:1003000008958EB580648EBD0895823079F0833073
:1003100029F1813079F5613019F0623059F503C067
:1003200089B7816022C089B782601FC0623069F0DE
:10033000633018F46130F1F405C0633049F0643083
:10034000C9F409C089B7806210C089B780610DC047
:1003500089B788600AC089B7846007C0613019F026
:10036000623041F404C089B7806489BF089589B7B9
:10037000806889BF0895823079F0833029F1813017
:1003800079F5613019F0623059F503C089B78E7F75
:1003900022C089B78D7F1FC0623069F0633018F4C6
:1003A0006130F1F405C0633049F06430C9F409C02C
:1003B00089B78F7D10C089B78F7E0DC089B7877FC1
:1003C0000AC089B78B7F07C0613019F0623041F4F1
:1003D00004C089B78F7B89BF089589B78F7789BF9C
:1003E0000895823099F0833089F18130E9F56130E8
:1003F00019F06230C9F505C0509389004093880018
:10040000089550938B0040938A000895623079F0EC
:10041000633018F4613041F505C0633069F0643031
:1004200019F50FC0509381004093800008955093B8
:100430008300409382000895509385004093840088
:10044000089550938700409386000895613019F015
:10045000623051F405C050937D0040937C000895B4
:1004600050937F0040937E0008951F920F920FB625
:100470000F9211242F933F934F935F936F937F932A
:100480008F939F93AF93BF93EF93FF9380918E00D1
:1004900090918F00019690938F0080938E00209111
:1004A0007A0030917B008217930759F4E09188001D
:1004B000F0918900309729F0099510928F001092E1
:1004C0008E00FF91EF91BF91AF919F918F917F919E
:1004D0006F915F914F913F912F910F900FBE0F90B1
:1004E0001F9018951F920F920FB60F9211242F9301
:1004F0003F934F935F936F937F938F939F93AF93AC
:10050000BF93EF93FF9380918C0090918D000196A3
:1005100090938D0080938C0020917A0030917B0025
:100520008217930759F4E0918A00F0918B0030977D
:1005300029F0099510928D0010928C00FF91EF9197
:10054000BF91AF919F918F917F916F915F914F91EB
:100550003F912F910F900FBE0F901F9018951F92F3
:100560000F920FB60F9211242F933F934F935F93E7
:100570006F937F938F939F93AF93BF93EF93FF936B
:10058000E0918000F09181000995FF91EF91BF917A
:10059000AF919F918F917F916F915F914F913F911B
:1005A0002F910F900FBE0F901F9018951F920F92D2
:1005B0000FB60F9211242F933F934F935F936F9336
:1005C0007F938F939F93AF93BF93EF93FF93E091AC
:1005D0008200F09183000995FF91EF91BF91AF9157
:1005E0009F918F917F916F915F914F913F912F914B
:1005F0000F900FBE0F901F9018951F920F920FB67D
:100600000F9211242F933F934F935F936F937F9398
:100610008F939F93AF93BF93EF93FF93E0918400E9
:10062000F09185000995FF91EF91BF91AF919F9156
:100630008F917F916F915F914F913F912F910F908B
:100640000FBE0F901F9018951F920F920FB60F922A
:1006500011242F933F934F935F936F937F938F93C7
:100660009F93AF93BF93EF93FF93E0918600F09138
:1006700087000995FF91EF91BF91AF919F918F9165
:100680007F916F915F914F913F912F910F900FBE8E
:100690000F901F9018951F920F920FB60F92112472
:1006A0002F933F934F935F936F937F938F939F937A
:1006B000AF93BF93EF93FF93E0917E00F0917F00A3
:1006C0000995FF91EF91BF91AF919F918F917F918C
:1006D0006F915F914F913F912F910F900FBE0F90AF
:1006E0001F9018951F920F920FB60F9211242F93FF
:1006F0003F934F935F936F937F938F939F93AF93AA
:10070000BF93EF93FF93E0917C00F0917D000995FA
:10071000FF91EF91BF91AF919F918F917F916F91D9
:100720005F914F913F912F910F900FBE0F901F90AF
:1007300018958FB780688FBF08958FB78F778FBF59
:10074000089585B7826085BF85B78E7F85BF8BB7DB
:1007500080648BBF0895823039F0833049F0813056
:1007600051F48BB7806402C08BB780688BBF08954B
:100770008BB780628BBF0895823039F0833049F0A7
:10078000813051F48BB78F7B02C08BB78F778BBFD3
:1007900008958BB78F7D8BBF0895823029F1833008
:1007A00009F441C0813009F04AC0623071F0633011
:1007B00020F4613009F043C005C0633079F0643043
:1007C000F1F506C085B782600BC085B7826002C0B4
:1007D00085B78D7F85BF85B7816023C085B78D7F45
:1007E00085BF85B78E7F1DC0623069F0633018F415
:1007F000613029F505C0633079F0643001F506C039
:1008000085B788600BC085B7886002C085B7877FD1
:1008100085BF85B7846005C085B7877F85BF85B7ED
:100820008B7F85BF0895613019F0623041F404C0B8
:1008300084B78F7B84BF089584B7806484BF089594
:10084000823049F0833061F0813071F4709391000F
:1008500060939000089570939300609392000895C0
:10086000709395006093940008954130B1F5813004
:1008700099F0813030F08230D1F0833009F067C0D8
:1008800021C02AB381E090E002C0880F991F6A95C9
:10089000E2F7282B2ABB089527B381E090E002C03D
:1008A000880F991F6A95E2F7282B27BB089524B378
:1008B00081E090E002C0880F991F6A95E2F7282B2B
:1008C00024BB089521B381E090E002C0880F991FF6
:1008D0006A95E2F7282B21BB08954423C1F58130A6
:1008E00099F0813028F08230D9F0833081F524C02E
:1008F0002AB381E090E002C0880F991F6A95E2F761
:10090000809582238ABB089527B381E090E002C0DE
:10091000880F991F6A95E2F78095822387BB089517
:1009200024B381E090E002C0880F991F6A95E2F736
:100930008095822384BB089521B381E090E002C0BA
:10094000880F991F6A95E2F78095822381BB0895ED
:10095000813049F0813028F0823039F0833041F421
:1009600006C06ABB089567BB089564BB089561BB68
:1009700008954130B1F5813099F0813030F0823006
:10098000D1F0833009F067C021C02BB381E090E043
:1009900002C0880F991F6A95E2F7282B2BBB089598
:1009A00028B381E090E002C0880F991F6A95E2F7B2
:1009B000282B28BB089525B381E090E002C0880F62
:1009C000991F6A95E2F7282B25BB089522B381E091
:1009D00090E002C0880F991F6A95E2F7282B22BB8E
:1009E00008954423C1F5813099F0813028F0823098
:1009F000D9F0833081F524C02BB381E090E002C0B0
:100A0000880F991F6A95E2F7809582238BBB089522
:100A100028B381E090E002C0880F991F6A95E2F741
:100A20008095822388BB089525B381E090E002C0C1
:100A3000880F991F6A95E2F78095822385BB0895F8
:100A400022B381E090E002C0880F991F6A95E2F717
:100A50008095822382BB0895813049F0813028F04F
:100A6000823039F0833041F406C06BBB089568BB17
:100A7000089565BB089562BB0895813051F08130BF
:100A800030F0823041F0833079F080E0089589B30E
:100A900003C086B301C083B390E002C095958795EB
:100AA0006A95E2F78170089580B390E002C0959551
:100AB00087956A95E2F781700895813051F0813011
:100AC00030F0823041F0833041F080E008958BB304
:100AD000089588B3089585B3089582B30895813049
:100AE00091F0813028F08230C9F0833061F521C067
:100AF0002BB381E090E002C0880F991F6A95E2F75E
:100B000028272BBB089528B381E090E002C0880F0E
:100B1000991F6A95E2F7282728BB089525B381E03D
:100B200090E002C0880F991F6A95E2F7282725BB3D
:100B3000089522B381E090E002C0880F991F6A9562
:100B4000E2F7282722BB08950F931F93021B130B74
:100B5000861B970B461B570BBC01069FC001079FC6
:100B6000900D169F900D1124BA010E941D09620F6D
:100B7000731FCB011F910F9108953F983E9A3D98A6
:100B800086B1887F866086B9359880B78F7180BFBF
:100B90003398379A089597B18F71907E892B87B9D2
:100BA000369A349BFECF349A24B135B1C9010895E9
:100BB00097B18F71907E892B87B9369A089524B1A9
:100BC00035B1C901089590939700809396000895D8
:100BD00080E060E00E942C0508950F931F93082F7A
:100BE000162F6A3058F461E00E94A804E12FF0E06B
:100BF000E059FF4F802F60810E942C051F910F91BB
:100C00000895FF920F931F938B01F42E80E00E94B2
:100C1000CB0524E630E0AC01429FC001439F900D1C
:100C2000529F900D1124809F9001819F300D909FC5
:100C3000300D112402C036952795FA94E2F7C901C8
:100C40001F910F91FF900895FF920F931F93F82E1D
:100C500081E060E041E00E94B90481E061E040E0B1
:100C60000E94B90400ED17E0C8010197F1F782E096
:100C70006F2D0E942C05C8010197F1F781E062E019
:100C800041E00E94B904C8010197F1F781E062E0F8
:100C900040E00E94B904C8010197F1F71F910F913C
:100CA000FF900895CF92DF92FF920F931F93DF93EF
:100CB000CF93CDB7DEB72A970FB6F894DEBF0FBE3D
:100CC000CDBF8C0197FF07C08DE20E9424061095CE
:100CD00001951F4F05C0009719F480E30E94240678
:100CE000FE0131968AE0DF011D928A95E9F740E026
:100CF0006F0110C0F601E40FF11DC8016AE070E059
:100D00000E941D098083C8016AE070E00E941D09ED
:100D10008B014F5F0115110569F7F42EFA940F2D21
:100D2000112707FD10950C0D1D1D08C0F8018081CD
:100D3000805D0E942406FA9401501040F7FEF6CF21
:100D40002A960FB6F894DEBF0FBECDBFCF91DF91CC
:100D50001F910F91FF90DF90CF9008951F93CF9335
:100D6000DF93EC0110E003C00E9424061F5FFE0128
:100D7000E10FF11D80818823B9F7DF91CF911F9199
:100D80000895FF920F931F93F82E81E060E040E0FA
:100D90000E94B90481E061E040E00E94B90400EDE6
:100DA00017E0C8010197F1F782E06F2D0E942C0532
:100DB000C8010197F1F781E062E041E00E94B904C7
:100DC000C8010197F1F781E062E040E00E94B904B8
:100DD000C8010197F1F71F910F91FF90089588E8DE
:100DE00093E128EC30E0F9013197F1F70197D9F759
:100DF0008EE00E94C10688E893E128EC30E0F9011A
:100E00003197F1F70197D9F7089588E893E128EC35
:100E100030E0F9013197F1F70197D9F78FE00E949F
:100E2000C10688E893E128EC30E0F9013197F1F749
:100E30000197D9F7089588E893E128EC30E0F901AB
:100E40003197F1F70197D9F788E00E94C10688E849
:100E500093E128EC30E0F9013197F1F70197D9F7E8
:100E6000089588E893E128EC30E0F9013197F1F733
:100E70000197D9F788E10E94C10688E893E128EC40
:100E800030E0F9013197F1F70197D9F708950F9301
:100E90001F93CF93DF93EC0100E003C00E94240670
:100EA0000F5FFE01E00FF11D80818823B9F788E80C
:100EB00093E128EC30E0F9013197F1F70197D9F788
:100EC000013168F010E0C02FD0E0609703C00E94AD
:100ED00031071F5F812F90E08C179D07C4F3DF91CE
:100EE000CF911F910F910895823080F4603170F49A
:100EF000882319F0813051F405C0862F80580E9454
:100F0000C1060895862F80540E94C10608950F934C
:100F10001F93CF93DF938B01880F880F880F805C1E
:100F20000E94C106C0E0D0E0F801EC0FFD1F8081F7
:100F30000E9424062196C830D105B1F780E80E94AE
:100F4000C106DF91CF911F910F91089581E08A959D
:100F5000F1F781E00E94C10680ED97E00197F1F77B
:100F600008950F931F9380E197E228EC30E0F90198
:100F70003197F1F70197D9F781E060E041E00E94F5
:100F8000350481E061E041E00E94350481E062E0E7
:100F900041E00E94350482E06FEF0E94A80484EFD4
:100FA00091E028EC30E0F9013197F1F70197D9F79A
:100FB00088E30E94C10600ED17E0C8010197F1F730
:100FC0008CE00E94C106C8010197F1F781E00E9400
:100FD000C10680E797E10197F1F786E00E94C1061C
:100FE000C8010197F1F71F910F910895AF92BF9239
:100FF000DF92EF92FF920F931F93CF93DF93EE2434
:10100000EA94C0E0D0E090E1A92E97E2B92EDC2E60
:1010100083E06C2F40E00E94B9048E01005A1F4FFC
:1010200084E0F82E83E06F2D0E943D05882311F4A3
:10103000F801E08083E06F2D0E943D058823D1F305
:10104000C5010197F1F7F3940C5F1F4FF8E0FF160D
:1010500049F783E06D2D41E00E94B9042196C43028
:10106000D105A9F68E2DDF91CF911F910F91FF90A1
:10107000EF90DF90BF90AF90089583E06FE00E9403
:10108000A80483E06FEF0E942C0508950895089549
:101090000F931F93182F042F40E00E94B904812F53
:1010A000602F40E00E94B9041F910F910895EF92C4
:1010B000FF920F931F93182F062FF42EE22E41E07C
:1010C0000E943504812F6F2D41E00E94350481E09C
:1010D000E81621F082E0E816A1F409C0812F602F04
:1010E00041E00E94B904812F6F2D40E008C0812F9C
:1010F000602F40E00E94B904812F6F2D41E00E94D3
:10110000B9041F910F91FF90EF9008958091A30073
:101110008F5F8093A300823079F0833029F1813092
:1011200009F03FC00E94610190939E0080939D0052
:1011300081E00E94780108950E9461019093A000CF
:1011400080939F0080E00E94780180919F009091A1
:10115000A00020919D0030919E00821B930B9093E4
:101160009A008093990008950E9461019093A200D3
:101170008093A10082E061E00E94BB018091A10008
:101180009091A20020919F003091A000821B930BB0
:1011900090939C0080939B001092A30081E0809329
:1011A00098000895CF93DF9381E063E041E00E94CF
:1011B000350483E066E041E00E94350482E061E0AE
:1011C00046E858E00E94F1010E9449000E94620036
:1011D0000E94B10781E06FE770E00E94B00081E0FB
:1011E0000E94C00082E00E94C0000E949903C8ECE7
:1011F000D0E0809198008130E1F7109298000E9431
:10120000A60788EE93E0FE013197F1F70197D9F731
:1012100080919B0090919C000E94520681E060E0CA
:101220000E9474078091990090919A000E94520642
:1012300082E061E00E948501DCCF97FB092E072642
:101240000AD077FD04D00CD006D000201AF4709597
:1012500061957F4F0895F6F7909581959F4F08957A
:10126000AA1BBB1B51E107C0AA1FBB1FA617B707CC
:1012700010F0A61BB70B881F991F5A95A9F78095E8
:0C1280009095BC01CD010895F894FFCFBB
:10128C000102030405060708090A0B0C0D0E0F10CA
:0A129C003F065B4F666D7D077F6F14
:00000001FF
