:100000000C942A000C9447000C9447000C94470071
:100010000C94AB040C94D2040C940F040C9436048E
:100020000C945D040C9484040C94D2030C949503FA
:100030000C9419050C94FE000C9438010C94610189
:100040000C9447000C9447000C9447000C94470014
:100050000C94470011241FBECFE5D8E0DEBFCDBF12
:1000600010E0A0E6B0E0E6E3F6E102C005900D92F4
:10007000AE37B107D9F710E0AEE7B0E001C01D928E
:10008000AC3AB107E1F70E94DF0A0C94190B0C940B
:10009000000091B5987F982B91BD81B5886081BD96
:1000A000089588E181BD11BC0895579856985598D8
:1000B000549A539A529886E880BD5198509880B5CA
:1000C0008F7B80BD80B58F7D80BD80B58F7E80BDEC
:1000D00080B5877F80BD83E389B9089589B9089584
:1000E0005D9BFECF8CB908955F9BFECF8CB10895C8
:1000F000549A539A08955498539808958CB108953A
:10010000FC015F9BFECF8CB180830AC05F9BFECF5A
:100110008CB181838A3011F08D3009F411823196CF
:100120008081882399F70895FC0104C05D9BFECF70
:1001300031968CB980818823C9F7089501C08CB1AC
:100140005F99FDCF0895823031F0833031F08130F6
:1001500029F4579A0895559A0895569A0895823029
:1001600031F0833031F0813029F457980895559853
:10017000089556980895CF93DF93EC017093830010
:1001800060938200909385008093840083E00E94B6
:10019000A3008BB182958695877080FD0BC0888106
:1001A0008CB980918600909187000196909387008A
:1001B00080938600DF91CF91089570937F006093C4
:1001C0007E00909389008093880081E00E94A300C4
:1001D0000895823049F0833061F0813071F470937A
:1001E0007F0060937E00089570938100609380008B
:1001F0000895709383006093820008951F920F9278
:100200000FB60F9211242F933F934F935F936F93E9
:100210007F938F939F93AF93BF93EF93FF93E0915F
:100220007E00F0917F00309709F0099580918A0057
:1002300090918B002CB1E0918800F0918900E80F3B
:10024000F91F2083019690938B0080938A00FF9181
:10025000EF91BF91AF919F918F917F916F915F913E
:100260004F913F912F910F900FBE0F901F901895B7
:100270001F920F920FB60F9211242F933F934F931B
:100280005F936F937F938F939F93AF93BF93EF93FE
:10029000FF93E0918000F0918100309709F009957B
:1002A000FF91EF91BF91AF919F918F917F916F914E
:1002B0005F914F913F912F910F900FBE0F901F9024
:1002C00018951F920F920FB60F9211242F933F9300
:1002D0004F935F936F937F938F939F93AF93BF934E
:1002E000EF93FF93E0918200F0918300309709F043
:1002F00009958091860090918700E0918400F091AB
:100300008500E80FF91FE081EE2339F0ECB9019682
:10031000909387008093860003C083E00E94AF0023
:10032000FF91EF91BF91AF919F918F917F916F91CD
:100330005F914F913F912F910F900FBE0F901F90A3
:1003400018950E94100B9C0180E0232B09F081E09E
:10035000089583B78F7783BF83B7806483BF83B7E4
:10036000886083BF83B78E7F83BF83B78D7F83BF52
:1003700083B78B7F83BF83B78F7E83BF83B7806252
:1003800083BF08958FB5877F8FBD8FB58B7F8FBD5E
:100390008FB58F778FBD8FB58F7B8FBD8FB58F7DDD
:1003A0008FBD8FB58F7E8FBD8FB58E7F8FBD8FB583
:1003B0008D7F8FBD8EB5877F8EBD8EB58F7E8EBDB6
:1003C0008EB58E7F8EBD8EB58D7F8EBD8EB58B7FAB
:1003D0008EBD8EB580688EBD8EB580648EBD08954D
:1003E00085B58F7785BD85B5806485BD85B5886009
:1003F00085BD85B58F7E85BD85B5806285BD82B59D
:10040000877F82BD0895823031F0833039F08130AA
:1004100031F462BF08957DBD6CBD089564BD08953B
:10042000823031F0833039F0813031F46CBF08957F
:100430007BBD6ABD089563BD089597BD86BD0895CF
:10044000823071F08330B1F08130E9F483B78E7F70
:1004500083BF83B78D7F83BF83B78B7F83BF0895AF
:100460008EB58E7F8EBD8EB58D7F8EBD8EB58B7F0A
:100470008EBD089585B58E7F85BD85B58D7F85BD83
:1004800085B58B7F85BD0895823089F08330F1F08A
:10049000813051F550938D0040938C0030939D0036
:1004A00020939C0081E00E94100281E00CC05093D8
:1004B0008D0040938C00309395002093940082E04F
:1004C0000E94100282E00E942002089550938D0045
:1004D00040938C00309391002093900083E00E9421
:1004E000100283E00E9420020895823071F0833070
:1004F000C1F0813009F570938D0060938C005093AA
:100500009B0040939A0081E009C070938D00609336
:100510008C00509399004093980082E00E94200242
:10052000089570938D0060938C0050938F004093DA
:100530008E0083E00E9420020895823071F08330A3
:10054000B1F08130E9F483B78E7F83BF83B78D7FAD
:1005500083BF83B78B7F83BF08958EB58E7F8EBD9B
:100560008EB58D7F8EBD8EB58B7F8EBD089585B582
:100570008E7F85BD85B58D7F85BD85B58B7F85BD1E
:10058000089526B537B5C9010895823049F0833002
:1005900051F0813019F020E030E008C082B704C08B
:1005A0002CB53DB503C084B5282F30E0C9010895AE
:1005B000882319F0813041F404C08EB58F7B8EBD45
:1005C00008958EB580648EBD0895823079F08330B1
:1005D00029F1813079F5613019F0623059F503C0A5
:1005E00089B7816022C089B782601FC0623069F01C
:1005F000633018F46130F1F405C0633049F06430C1
:10060000C9F409C089B7806210C089B780610DC084
:1006100089B788600AC089B7846007C0613019F063
:10062000623041F404C089B7806489BF089589B7F6
:10063000806889BF0895823079F0833029F1813054
:1006400079F5613019F0623059F503C089B78E7FB2
:1006500022C089B78D7F1FC0623069F0633018F403
:100660006130F1F405C0633049F06430C9F409C069
:1006700089B78F7D10C089B78F7E0DC089B7877FFE
:100680000AC089B78B7F07C0613019F0623041F42E
:1006900004C089B78F7B89BF089589B78F7789BFD9
:1006A0000895823099F0833089F18130E9F5613025
:1006B00019F06230C9F505C050939B0040939A0031
:1006C000089550939D0040939C000895623079F006
:1006D000633018F4613041F505C0633069F064306F
:1006E00019F50FC0509393004093920008955093D2
:1006F000950040939400089550939700409396007E
:10070000089550939900409398000895613019F02E
:10071000623051F405C050938F0040938E000895CD
:10072000509391004093900008951F920F920FB63E
:100730000F9211242F933F934F935F936F937F9367
:100740008F939F93AF93BF93EF93FF938091A000FC
:100750009091A10001969093A1008093A000209118
:100760008C0030918D008217930759F4E0919A0024
:10077000F0919B00309729F009951092A1001092FA
:10078000A000FF91EF91BF91AF919F918F917F91C9
:100790006F915F914F913F912F910F900FBE0F90EE
:1007A0001F9018951F920F920FB60F9211242F933E
:1007B0003F934F935F936F937F938F939F93AF93E9
:1007C000BF93EF93FF9380919E0090919F000196BD
:1007D00090939F0080939E0020918C0030918D001B
:1007E0008217930759F4E0919C00F0919D00309797
:1007F00029F0099510929F0010929E00FF91EF91B1
:10080000BF91AF919F918F917F916F915F914F9128
:100810003F912F910F900FBE0F901F9018951F9230
:100820000F920FB60F9211242F933F934F935F9324
:100830006F937F938F939F93AF93BF93EF93FF93A8
:10084000E0919200F09193000995FF91EF91BF9193
:10085000AF919F918F917F916F915F914F913F9158
:100860002F910F900FBE0F901F9018951F920F920F
:100870000FB60F9211242F933F934F935F936F9373
:100880007F938F939F93AF93BF93EF93FF93E091E9
:100890009400F09195000995FF91EF91BF91AF9170
:1008A0009F918F917F916F915F914F913F912F9188
:1008B0000F900FBE0F901F9018951F920F920FB6BA
:1008C0000F9211242F933F934F935F936F937F93D6
:1008D0008F939F93AF93BF93EF93FF93E091960015
:1008E000F09197000995FF91EF91BF91AF919F9182
:1008F0008F917F916F915F914F913F912F910F90C9
:100900000FBE0F901F9018951F920F920FB60F9267
:1009100011242F933F934F935F936F937F938F9304
:100920009F93AF93BF93EF93FF93E0919800F09163
:1009300099000995FF91EF91BF91AF919F918F9190
:100940007F916F915F914F913F912F910F900FBECB
:100950000F901F9018951F920F920FB60F921124AF
:100960002F933F934F935F936F937F938F939F93B7
:10097000AF93BF93EF93FF93E0919000F0919100BC
:100980000995FF91EF91BF91AF919F918F917F91C9
:100990006F915F914F913F912F910F900FBE0F90EC
:1009A0001F9018951F920F920FB60F9211242F933C
:1009B0003F934F935F936F937F938F939F93AF93E7
:1009C000BF93EF93FF93E0918E00F0918F00099514
:1009D000FF91EF91BF91AF919F918F917F916F9117
:1009E0005F914F913F912F910F900FBE0F901F90ED
:1009F00018958FB9779BFECF779BFECF8FB1089567
:100A00008FB9779BFECF0895779BFECF8FB1089566
:100A10008FB9779BFECF0895779BFECF8FB1089556
:100A20006E9A08956E9808959093A3008093A20003
:100A300008951F920F920FB60F9211242F933F9398
:100A40004F935F936F937F938F939F93AF93BF93D6
:100A5000EF93FF93E091A200F091A300309709F08B
:100A60000995FF91EF91BF91AF919F918F917F91E8
:100A70006F915F914F913F912F910F900FBE0F900B
:100A80001F90189581E065E041E00E94460681E0F4
:100A900067E041E00E94460681E064E041E00E9498
:100AA000460681E066E040E00E944606709876982F
:100AB0008EE58DB908958AE080B986B7877F86BFB5
:100AC00086B78E7F86BF86B7846086BF089584EA26
:100AD00086BF06B607FEFDCF81B1887F089584EA00
:100AE00086BF06B607FEFDCF81B1887F0895880FC7
:100AF000862B83B984E886BF86B78F7D86BF06B60E
:100B000007FEFDCF81B1887F089583B984E886BF51
:100B100006B607FEFDCF81B1887F0895FC016623EC
:100B200021F0613039F484EC04C084E886BF86B7D4
:100B30008F7B86BF06B607FEFDCF83B1808381B170
:100B4000887F089584E986BF81B1887F089581B147
:100B5000887F08958FB780688FBF08958FB78F778C
:100B60008FBF089585B7826085BF85B78E7F85BFAB
:100B70008BB780648BBF0895823039F0833049F0A1
:100B8000813051F48BB7806402C08BB780688BBF13
:100B900008958BB780628BBF0895823039F083301F
:100BA00049F0813051F48BB78F7B02C08BB78F77C0
:100BB0008BBF08958BB78F7D8BBF0895823029F14D
:100BC000833009F441C0813009F04AC0623071F0CD
:100BD000633020F4613009F043C005C0633079F020
:100BE0006430F1F506C085B782600BC085B78260BE
:100BF00002C085B78D7F85BF85B7816023C085B76B
:100C00008D7F85BF85B78E7F1DC0623069F06330F0
:100C100018F4613029F505C0633079F0643001F5CE
:100C200006C085B788600BC085B7886002C085B7ED
:100C3000877F85BF85B7846005C085B7877F85BFFF
:100C400085B78B7F85BF0895613019F0623041F41C
:100C500004C084B78F7B84BF089584B7806484BF49
:100C60000895823049F0833061F0813071F47093DF
:100C7000A5006093A40008957093A7006093A60058
:100C800008957093A9006093A80008954130B1F5CC
:100C9000813099F0813030F08230D1F0833009F02A
:100CA00067C021C02AB381E090E002C0880F991F7D
:100CB0006A95E2F7282B2ABB089527B381E090E0DC
:100CC00002C0880F991F6A95E2F7282B27BB089569
:100CD00024B381E090E002C0880F991F6A95E2F783
:100CE000282B24BB089521B381E090E002C0880F37
:100CF000991F6A95E2F7282B21BB08954423C1F57B
:100D0000813099F0813028F08230D9F0833081F53C
:100D100024C02AB381E090E002C0880F991F6A9531
:100D2000E2F7809582238ABB089527B381E090E0A3
:100D300002C0880F991F6A95E2F78095822387BBCE
:100D4000089524B381E090E002C0880F991F6A954E
:100D5000E2F78095822384BB089521B381E090E07F
:100D600002C0880F991F6A95E2F78095822381BBA4
:100D70000895813049F0813028F0823039F0833095
:100D800041F406C06ABB089567BB089564BB08952B
:100D900061BB08954130B1F5813099F0813030F078
:100DA0008230D1F0833009F067C021C02BB381E0DD
:100DB00090E002C0880F991F6A95E2F7282B2BBBA1
:100DC000089528B381E090E002C0880F991F6A95CA
:100DD000E2F7282B28BB089525B381E090E002C0FC
:100DE000880F991F6A95E2F7282B25BB089522B337
:100DF00081E090E002C0880F991F6A95E2F7282BE6
:100E000022BB08954423C1F5813099F0813028F048
:100E10008230D9F0833081F524C02BB381E090E09B
:100E200002C0880F991F6A95E2F7809582238BBBD9
:100E3000089528B381E090E002C0880F991F6A9559
:100E4000E2F78095822388BB089525B381E090E086
:100E500002C0880F991F6A95E2F78095822385BBAF
:100E6000089522B381E090E002C0880F991F6A952F
:100E7000E2F78095822382BB0895813049F081306A
:100E800028F0823039F0833041F406C06BBB0895FE
:100E900068BB089565BB089562BB0895813051F029
:100EA000813030F0823041F0833079F080E0089575
:100EB00089B303C086B301C083B390E002C09595A7
:100EC00087956A95E2F78170089580B390E002C03B
:100ED000959587956A95E2F781700895813051F074
:100EE000813030F0823041F0833041F080E008956D
:100EF0008BB3089588B3089585B3089582B3089598
:100F0000813091F0813028F08230C9F0833061F572
:100F100021C02BB381E090E002C0880F991F6A9531
:100F2000E2F728272BBB089528B381E090E002C0A8
:100F3000880F991F6A95E2F7282728BB089525B3E3
:100F400081E090E002C0880F991F6A95E2F7282798
:100F500025BB089522B381E090E002C0880F991F5D
:100F60006A95E2F7282722BB08950F931F93021B6F
:100F7000130B861B970B461B570BBC01069FC0012A
:100F8000079F900D169F900D1124BA010E94E90A47
:100F9000620F731FCB011F910F9108953F983E9AE6
:100FA0003D9886B1887F866086B9359880B78F7105
:100FB00080BF3398379A089597B18F71907E892BAF
:100FC00087B9369A349BFECF349A24B135B1C90122
:100FD000089597B18F71907E892B87B9369A0895BD
:100FE00024B135B1C90108959093AB008093AA0054
:100FF000089580E060E00E943D0708950F931F93DD
:10100000082F162F6A3058F461E00E94B906E12FCC
:10101000F0E0EC58FF4F802F60810E943D071F9148
:101020000F910895FF920F931F938B01F42E80E090
:101030000E94DC0724E630E0AC01429FC001439FE0
:10104000900D529F900D1124809F9001819F300D33
:10105000909F300D112402C036952795FA94E2F73F
:10106000C9011F910F91FF900895FF920F931F9355
:10107000F82E81E060E041E00E94CA0681E061E074
:1010800040E00E94CA0600ED17E0C8010197F1F7A1
:1010900082E06F2D0E943D07C8010197F1F781E0C2
:1010A00062E041E00E94CA06C8010197F1F781E0C1
:1010B00062E040E00E94CA06C8010197F1F71F9163
:1010C0000F91FF900895CF92DF92FF920F931F939D
:1010D000DF93CF93CDB7DEB72A970FB6F894DEBF74
:1010E0000FBECDBF8C0197FF07C08DE20E9435086F
:1010F000109501951F4F05C0009719F480E30E94D9
:101100003508FE0131968AE0DF011D928A95E9F7E4
:1011100040E06F0110C0F601E40FF11DC8016AE064
:1011200070E00E94E90A8083C8016AE070E00E94D2
:10113000E90A8B014F5F0115110569F7F42EFA9446
:101140000F2D112707FD10950C0D1D1D08C0F8016E
:101150008081805D0E943508FA9401501040F7FEAE
:10116000F6CF2A960FB6F894DEBF0FBECDBFCF9153
:10117000DF911F910F91FF90DF90CF9008951F9303
:10118000CF93DF93EC0110E003C00E9435081F5F8E
:10119000FE01E10FF11D80818823B9F7DF91CF9126
:1011A0001F910895FF920F931F93F82E81E060E046
:1011B00040E00E94CA0681E061E040E00E94CA0669
:1011C00000ED17E0C8010197F1F782E06F2D0E9452
:1011D0003D07C8010197F1F781E062E041E00E941C
:1011E000CA06C8010197F1F781E062E040E00E9481
:1011F000CA06C8010197F1F71F910F91FF9008955A
:1012000088E893E128EC30E0F9013197F1F7019794
:10121000D9F78EE00E94D20888E893E128EC30E00C
:10122000F9013197F1F70197D9F7089588E893E12B
:1012300028EC30E0F9013197F1F70197D9F78FE009
:101240000E94D20888E893E128EC30E0F901319758
:10125000F1F70197D9F7089588E893E128EC30E099
:10126000F9013197F1F70197D9F788E00E94D20888
:1012700088E893E128EC30E0F9013197F1F7019724
:10128000D9F7089588E893E128EC30E0F901319727
:10129000F1F70197D9F788E10E94D20888E893E135
:1012A00028EC30E0F9013197F1F70197D9F708956B
:1012B0000F931F93CF93DF93EC0100E003C00E94D4
:1012C00035080F5FFE01E00FF11D80818823B9F71B
:1012D00088E893E128EC30E0F9013197F1F70197C4
:1012E000D9F7013168F010E0C02FD0E0609703C05B
:1012F0000E9442091F5F812F90E08C179D07C4F365
:10130000DF91CF911F910F910895823080F4603169
:1013100070F4882319F0813051F405C0862F80586D
:101320000E94D2080895862F80540E94D208089502
:101330000F931F93CF93DF938B01880F880F880F34
:10134000805C0E94D208C0E0D0E0F801EC0FFD1FE5
:1013500080810E9435082196C830D105B1F780E818
:101360000E94D208DF91CF911F910F91089581E0E3
:101370008A95F1F781E00E94D20880ED97E001970D
:10138000F1F708950F931F9380E197E228EC30E086
:10139000F9013197F1F70197D9F781E060E041E079
:1013A0000E94460681E061E041E00E94460681E03D
:1013B00062E041E00E94460682E06FEF0E94B906BB
:1013C00084EF91E028EC30E0F9013197F1F70197D3
:1013D000D9F788E30E94D20800ED17E0C801019711
:1013E000F1F78CE00E94D208C8010197F1F781E083
:1013F0000E94D20880E797E10197F1F786E00E940A
:10140000D208C8010197F1F71F910F910895AF928B
:10141000BF92DF92EF92FF920F931F93CF93DF93D0
:10142000EE24EA94C0E0D0E090E1A92E97E2B92E34
:10143000DC2E83E06C2F40E00E94CA068E010C591E
:101440001F4F84E0F82E83E06F2D0E944E07882303
:1014500011F4F801E08083E06F2D0E944E0788238D
:10146000D1F3C5010197F1F7F3940C5F1F4FF8E03A
:10147000FF1649F783E06D2D41E00E94CA062196D0
:10148000C430D105A9F68E2DDF91CF911F910F9118
:10149000FF90EF90DF90BF90AF90089583E06FE0F2
:1014A0000E94B90683E06FEF0E943D070895FF9206
:1014B0000F931F93DF93CF930F92CDB7DEB78C01BD
:1014C00019828070937080E5F82EF92A0E946705D2
:1014D0008F2D60E00E947705802F0E9485050E9475
:1014E0006F058F2D61E00E947705CE01019660E0C7
:1014F0000E948E050E94A20589810F90CF91DF91F5
:101500001F910F91FF900895FF920F931F93F82E54
:101510008B010E946705C80180709370892F8065D8
:1015200060E00E947705802F0E9485058F2D0E9424
:1015300085050E94A2051F910F91FF9008950895BF
:1015400008950F931F93182F042F40E00E94CA069E
:10155000812F602F40E00E94CA061F910F910895CD
:10156000EF92FF920F931F93182F062FF42EE22E67
:1015700041E00E944606812F6F2D41E00E94460601
:1015800081E0E81621F082E0E816A1F409C0812F7D
:10159000602F41E00E94CA06812F6F2D40E008C0F5
:1015A000812F602F40E00E94CA06812F6F2D41E0FD
:1015B0000E94CA061F910F91FF90EF9008950E941C
:1015C000550080E690E090E060E070E00E94BB0093
:1015D000FFCF97FB092E07260AD077FD04D00CD049
:1015E00006D000201AF4709561957F4F0895F6F7A4
:1015F000909581959F4F0895AA1BBB1B51E107C091
:10160000AA1FBB1FA617B70710F0A61BB70B881F92
:10161000991F5A95A9F780959095BC01CD01089521
:10162000FB01DC018D91019080190110D9F3990B18
:061630000895F894FFCFBD
:10163600416C69000102030405060708090A0B0C40
:0E1646000D0E0F103F065B4F666D7D077F6F28
:00000001FF
