:100000000C942A000C94CA040C9447000C944700EA
:100010000C9447000C9447000C9447000C94470044
:100020000C9447000C9447000C9447000C94470034
:100030000C9447000C9447000C9447000C94470024
:100040000C9447000C9447000C9447000C94470014
:100050000C94470011241FBECFE5D8E0DEBFCDBF12
:1000600010E0A0E6B0E0E4E6FAE002C005900D92F0
:10007000AA37B107D9F710E0AAE7B0E001C01D9296
:10008000A038B107E1F70E94F0040C9430050C94FD
:1000900000008FB780688FBF08958FB78F778FBFAD
:1000A000089585B7826085BF85B78E7F85BF8BB782
:1000B00080648BBF0895823039F0833049F08130FD
:1000C00051F48BB7806402C08BB780688BBF0895F2
:1000D0008BB780628BBF0895823039F0833049F04E
:1000E000813051F48BB78F7B02C08BB78F778BBF7A
:1000F00008958BB78F7D8BBF0895823029F18330AF
:1001000009F441C0813009F04AC0623071F06330B7
:1001100020F4613009F043C005C0633079F06430E9
:10012000F1F506C085B782600BC085B7826002C05A
:1001300085B78D7F85BF85B7816023C085B78D7FEB
:1001400085BF85B78E7F1DC0623069F0633018F4BB
:10015000613029F505C0633079F0643001F506C0DF
:1001600085B788600BC085B7886002C085B7877F78
:1001700085BF85B7846005C085B7877F85BF85B794
:100180008B7F85BF0895613019F0623041F404C05F
:1001900084B78F7B84BF089584B7806484BF08953B
:1001A000823049F0833061F0813071F470937B00CC
:1001B00060937A00089570937D0060937C000895A9
:1001C00070937F0060937E0008954130B1F58130D7
:1001D00099F0813030F08230D1F0833009F067C07F
:1001E00021C02AB381E090E002C0880F991F6A9570
:1001F000E2F7282B2ABB089527B381E090E002C0E4
:10020000880F991F6A95E2F7282B27BB089524B31E
:1002100081E090E002C0880F991F6A95E2F7282BD1
:1002200024BB089521B381E090E002C0880F991F9C
:100230006A95E2F7282B21BB08954423C1F581304C
:1002400099F0813028F08230D9F0833081F524C0D4
:100250002AB381E090E002C0880F991F6A95E2F707
:10026000809582238ABB089527B381E090E002C085
:10027000880F991F6A95E2F78095822387BB0895BE
:1002800024B381E090E002C0880F991F6A95E2F7DD
:100290008095822384BB089521B381E090E002C061
:1002A000880F991F6A95E2F78095822381BB089594
:1002B000813049F0813028F0823039F0833041F4C8
:1002C00006C06ABB089567BB089564BB089561BB0F
:1002D00008954130B1F5813099F0813030F08230AD
:1002E000D1F0833009F067C021C02BB381E090E0EA
:1002F00002C0880F991F6A95E2F7282B2BBB08953F
:1003000028B381E090E002C0880F991F6A95E2F758
:10031000282B28BB089525B381E090E002C0880F08
:10032000991F6A95E2F7282B25BB089522B381E037
:1003300090E002C0880F991F6A95E2F7282B22BB34
:1003400008954423C1F5813099F0813028F082303E
:10035000D9F0833081F524C02BB381E090E002C056
:10036000880F991F6A95E2F7809582238BBB0895C9
:1003700028B381E090E002C0880F991F6A95E2F7E8
:100380008095822388BB089525B381E090E002C068
:10039000880F991F6A95E2F78095822385BB08959F
:1003A00022B381E090E002C0880F991F6A95E2F7BE
:1003B0008095822382BB0895813049F0813028F0F6
:1003C000823039F0833041F406C06BBB089568BBBE
:1003D000089565BB089562BB0895813051F0813066
:1003E00030F0823041F0833079F080E0089589B3B5
:1003F00003C086B301C083B390E002C09595879592
:100400006A95E2F78170089580B390E002C09595F7
:1004100087956A95E2F781700895813051F08130B7
:1004200030F0823041F0833041F080E008958BB3AA
:10043000089588B3089585B3089582B308958130EF
:1004400091F0813028F08230C9F0833061F521C00D
:100450002BB381E090E002C0880F991F6A95E2F704
:1004600028272BBB089528B381E090E002C0880FB5
:10047000991F6A95E2F7282728BB089525B381E0E4
:1004800090E002C0880F991F6A95E2F7282725BBE4
:10049000089522B381E090E002C0880F991F6A9509
:1004A000E2F7282722BB089580E060E00E94DC018B
:1004B00008950F931F93082F162F6A3058F461E0A8
:1004C0000E945801E12FF0E0E059FF4F802F60813A
:1004D0000E94DC011F910F910895FF920F931F93CB
:1004E000F82E81E060E041E00E94690181E061E076
:1004F00040E00E94690100ED17E0C8010197F1F7A3
:1005000082E06F2D0E94DC01C8010197F1F781E0C4
:1005100062E041E00E946901C8010197F1F781E0C2
:1005200062E040E00E946901C8010197F1F71F9164
:100530000F91FF900895EF92FF920F931F93DF9317
:10054000CF93CDB7DEB72A970FB6F894DEBF0FBEB4
:10055000CDBF8C0197FF07C08DE20E946D02109500
:1005600001951F4F05C0009719F480E30E946D02AA
:10057000FE0131968AE0DF011D928A95E9F740E09D
:100580007F0110C0F701E40FF11DC8016AE070E0BF
:100590000E9409058083C8016AE070E00E94090595
:1005A0008B014F5F0115110569F7F42EFA948E0146
:1005B0000F5F1F4F040F111D06C0F8018081805D81
:1005C0000E946D02FA94F7FEF8CF2A960FB6F894BF
:1005D000DEBF0FBECDBFCF91DF911F910F91FF9076
:1005E000EF9008951F93CF93DF93EC0110E003C0C9
:1005F0000E946D021F5FFE01E10FF11D80818823C3
:10060000B9F7DF91CF911F910895FF920F931F9338
:10061000F82E81E060E040E00E94690181E061E045
:1006200040E00E94690100ED17E0C8010197F1F771
:1006300082E06F2D0E94DC01C8010197F1F781E093
:1006400062E041E00E946901C8010197F1F781E091
:1006500062E040E00E946901C8010197F1F71F9133
:100660000F91FF90089588E893E128EC30E0F901BC
:100670003197F1F70197D9F78EE00E94050388E8DA
:1006800093E128EC30E0F9013197F1F70197D9F7C0
:10069000089588E893E128EC30E0F9013197F1F70B
:1006A0000197D9F78FE00E94050388E893E128ECD1
:1006B00030E0F9013197F1F70197D9F7089588E80B
:1006C00093E128EC30E0F9013197F1F70197D9F780
:1006D00088E00E94050388E893E128EC30E0F90106
:1006E0003197F1F70197D9F7089588E893E128EC5D
:1006F00030E0F9013197F1F70197D9F788E10E94CD
:10070000050388E893E128EC30E0F9013197F1F72F
:100710000197D9F708950F931F93CF93DF93EC01BF
:1007200000E003C00E946D020F5FFE01E00FF11DAB
:1007300080818823B9F788E893E128EC30E0F9015B
:100740003197F1F70197D9F7013168F010E0C02F28
:10075000D0E0609703C00E9475031F5F812F90E077
:100760008C179D07C4F3DF91CF911F910F910895CE
:10077000823080F4603170F4882319F0813051F4B4
:1007800005C0862F80580E9405030895862F805447
:100790000E94050308950F931F93CF93DF938B015E
:1007A000880F880F880F805C0E940503C0E0D0E0AE
:1007B000F801EC0FFD1F80810E946D022196C83068
:1007C000D105B1F780E80E940503DF91CF911F9119
:1007D0000F91089581E08A95F1F781E00E94050369
:1007E00080ED97E00197F1F708950F931F9380E153
:1007F00097E228EC30E0F9013197F1F70197D9F74A
:1008000081E060E041E00E94E50081E061E041E0DC
:100810000E94E50081E062E041E00E94E50082E0A4
:100820006FEF0E94580184EF91E028EC30E0F9016D
:100830003197F1F70197D9F788E30E94050300ED9E
:1008400017E0C8010197F1F78CE00E940503C80189
:100850000197F1F781E00E94050380E797E1019796
:10086000F1F786E00E940503C8010197F1F71F9197
:100870000F910895AF92BF92DF92EF92FF920F9384
:100880001F93CF93DF93EE24EA94C0E0D0E090E191
:10089000A92E97E2B92EDC2E83E06C2F40E00E9457
:1008A00069018E01005A1F4F84E0F82E83E06F2DFE
:1008B0000E94ED01882311F4F801E08083E06F2DA0
:1008C0000E94ED018823D1F3C5010197F1F7F3945C
:1008D0000C5F1F4FF8E0FF1649F783E06D2D41E0F4
:1008E0000E9469012196C430D105A9F68E2DDF91B1
:1008F000CF911F910F91FF90EF90DF90BF90AF903D
:10090000089583E06FE00E94580183E06FEF0E943A
:10091000DC010895089508950F931F93182F042F55
:1009200040E00E946901812F602F40E00E94690130
:100930001F910F910895EF92FF920F931F93182F1D
:10094000062FF42EE22E41E00E94E500812F6F2D4C
:1009500041E00E94E50081E0E81621F082E0E8161F
:10096000A1F409C0812F602F41E00E946901812F0D
:100970006F2D40E008C0812F602F40E00E94690188
:10098000812F6F2D41E00E9469011F910F91FF900F
:10099000EF9008951F920F920FB60F9211242F938C
:1009A0003F934F935F936F937F938F939F93AF93F7
:1009B000BF93EF93FF9380E060E00E941F02FF91DE
:1009C000EF91BF91AF919F918F917F916F915F91C7
:1009D0004F913F912F910F900FBE0F901F90189540
:1009E00083E062E040E00E94E50083E062E041E0F5
:1009F0000E94690180E060E041E00E94E50081E042
:100A00000E945B0081E061E00E947D000E9449003D
:100A1000FFCF97FB092E07260AD077FD04D00CD014
:100A200006D000201AF4709561957F4F0895F6F76F
:100A3000909581959F4F0895AA1BBB1B51E107C05C
:100A4000AA1FBB1FA617B70710F0A61BB70B881F5E
:100A5000991F5A95A9F780959095BC01CD010895ED
:040A6000F894FFCF38
:100A64000102030405060708090A0B0C0D0E0F10FA
:0A0A74003F065B4F666D7D077F6F44
:00000001FF
